:100000000C94BA1F0C94EB1F0C94EB1F0C94EB1F79
:100010000C94EB1F0C94EB1F0C94EB1F0C94EB1F38
:100020000C94EB1F0C94EB1F0C94EB1F0C94EB1F28
:100030000C94EB1F0C943B980C94EB1F0C94EB1F4F
:100040000C94EB1F0C943DBE0C94EB1F0C94EB1F17
:100050000C94EB1F0C94EB1F0C9479D40C94F19737
:100060000C94EB1F0C94C33F0C94B93F0C94EB1F02
:100070000C94EB1F0C94EB1F0C94EB1F0C94EB1FD8
:100080000C9422390C94EB1F0C94EB1F0C94EB1F77
:100090000C94EB1F0C94EB1F0C94EB1F0C94EB1FB8
:1000A0000C94EB1F0C94EB1F0C94F5380C94EB1F85
:1000B0000C94EB1F0C94EB1F0C94EB1F0C94C838A2
:1000C0000C94EB1F0C94EB1F0C94EB1F0C94EB1F88
:1000D0000C94EB1F0C94EB1F0C94EB1F0C94EB1F78
:1000E0000C94EB1F5563C461FD619163FD61FD617B
:1000F000FD61FD61FD61FD61FD61FD61FD61FD6110
:10010000FD61FD61FD61FD61FD61FD61FD61FD61FF
:10011000FD61FD61FD61FD61FD61FD61FD61FD61EF
:100120008B63FD61FD61FD61FD61FD61FD61FD614F
:10013000FD616463FD61FD61FD61FD61FD61FD6166
:10014000FD61FD61FD61FD61A863FA61B8D6BBD6B2
:10015000AAD6AED6B4D6F2D6BFD6C3D6C9D6CDD6D9
:10016000D1D6D7D6DBD6DFD6F2D6E5D6E9D6EDD6D0
:1001700063D968D96DD977D981D9FAD98BD993D96F
:100180009BD9A5D9AFD9B9D9C8D9D2D9FAD9DCD98F
:10019000E6D9F0D9CAE2A3E2A6E2CDE2A9E2ACE256
:1001A000AFE2BBE2B2E2C8E2B5E2B8E2084AD73B4E
:1001B0003BCE016E84BCBFFDC12F3D6C74319ABD36
:1001C00056833DDA3D00C77F11BED9E4BB4C3E915A
:1001D0006BAAAABE000000803F05A84CCDB2D44E49
:1001E000B93836A9020C50B9918688083CA6AAAA4B
:1001F0002ABE000000803F000D94470E0D940B2690
:100200000D94883D0D94AB250D94AF250D94E026FB
:100210000D9495230D94D20F0D949F230D94B72523
:100220000D94BA050D9451230D94A63D0D94BE2353
:100230000D9413260D9490230D94B9230D94C3238C
:100240000D94110E0D94620E0D94B3250D94C823D8
:100250000D94DB0D0D94F60D0D949A230D9403244B
:100260000D942C0E4E414E494E495459494E46CD9F
:10027000CCCC3D0AD7233C17B7D13877CC2B32955D
:1002800095E6241FB14F0A000020410000C842003B
:10029000401C4620BCBE4CCA1B0E5AAEC59D740005
:1002A000407A10F35A00A0724E18090010A5D4E845
:1002B0000000E87648170000E40B54020000CA9AD8
:1002C0003B000000E1F5050000809698000000402A
:1002D000420F000000A0860100000010270000006F
:1002E00000E803000000006400000000000A0000B5
:1002F0000000000100000000002C76D888DC674F69
:100300000823DFC1DFAE59E1B1B796E5E3E453C698
:100310003AE651997696E8E6C28426EB898C9B6290
:10032000ED407C6FFCEFBC9C9F40F2BAA56FA5F43A
:1003300090055A2AF75C936B6CF9676DC11BFCE062
:10034000E40D47FEF520E6B500D0ED902E030094B5
:100350003577050080841E080000204E0A0000004A
:10036000C80C333333330F986E12831141EF8D2154
:1003700014893BE65516CFFEE6DB18D1844B381BBB
:10038000F77C1D901DA4BBE424203284725E228180
:1003900000C9F124ECA1E53D27434F4D4D554E4991
:1003A000434154494F4E0044525952554E00455214
:1003B000524F525300494E464F004543484F004765
:1003C000322F47332062616420706172616D657401
:1003D0006572730A00536C6565702E2E2E005A20CC
:1003E00050726F62652050617374204265640A0028
:1003F0005A2050726F6265205061737420426564A8
:1004000000486F6D652058592066697273740A0040
:10041000486F6D65205859204669727374004D31DC
:1004200031372050726F6265206661696C65642E99
:10043000205265776970696E672E0A4732380A471D
:100440003132205030205331322054300050726FFE
:1004500062696E67204661696C6564004D313137B1
:1004600020426564206C6576656C696E6720666104
:10047000696C65642E0A4730205A31300A4D33309A
:10048000302050323520533838300A4D3330302048
:100490005035302053300A4D333030205032352023
:1004A000533838300A4D33303020503530205330F7
:1004B0000A4D3330302050323520533838300A4D11
:1004C000333030205035302053300A4734205331F8
:1004D000004D31313720426564206C6576656C696A
:1004E0006E6720646F6E652E00205A3A20002059F6
:1004F0003A200042656420583A20004D6573682018
:10050000706F696E742063616E6E6F742062652017
:100510007265736F6C7665640A00436C69636B2067
:10052000746F20526573756D652E2E2E00494E43F3
:100530004F5252454354205052494E544552005355
:100540004F564F4C2053563031004E6F204D6F7632
:10055000652E00456E642066696C65206C69737455
:100560000A00426567696E2066696C65206C697374
:10057000740A00286E6F2066696C652900437572E5
:1005800072656E742066696C653A20005344207071
:1005900072696E74696E67206279746520004E6FAF
:1005A00074205344207072696E74696E670A002566
:1005B00069730025696D2025697300256968202508
:1005C000696D2025697300256964202569682025E7
:1005D000696D2025697300256979202569642025C6
:1005E00069682025696D20256973005072696E74F1
:1005F0002074696D653A2000436F6F6C696E672ED9
:100600002E2E0048656174696E672E2E2E004520DF
:100610002553006F6B006F666600BA03B503AE0327
:10062000A703990344454255473A004D31313220E2
:1006300053687574646F776E004D31313320530009
:1006400042656420436F6F6C696E672E2E2E0042E8
:1006500065642048656174696E672E2E2E00534FC5
:10066000564F4C2053563031204F46462E004348BB
:10067000414D4245525F54454D50455241545552AB
:1006800045004D4F54494F4E5F4D4F444553005424
:100690004845524D414C5F50524F54454354494F89
:1006A0004E004155544F5245504F52545F53445F92
:1006B0005354415455530050524F4D50545F53556D
:1006C00050504F525400454D455247454E43595F97
:1006D00050415253455200434153455F4C494748AE
:1006E000545F4252494748544E45535300544F4774
:1006F000474C455F4C494748545300534F46545765
:100700004152455F504F574552004255494C445F56
:1007100050455243454E54004C4556454C494E4772
:100720005F44415441005A5F50524F424500415589
:10073000544F4C4556454C005052494E545F4A4F19
:10074000420050524F4752455353004155544F5267
:1007500045504F52545F54454D5000564F4C554DE7
:10076000455452494300454550524F4D0042494E71
:100770004152595F46494C455F5452414E5346459C
:10078000520053455249414C5F584F4E5F584F46B7
:1007900046004649524D574152455F4E414D453AFC
:1007A0004D61726C696E20322E302E3020284769E0
:1007B000744875622920534F555243455F434F4457
:1007C000455F55524C3A68747470733A2F2F6769BD
:1007D000746875622E636F6D2F4D61726C696E4621
:1007E00069726D776172652F4D61726C696E205010
:1007F000524F544F434F4C5F56455253494F4E3A18
:10080000312E30204D414348494E455F54595045A3
:100810003A534F564F4C205356303120455854527E
:10082000554445525F434F554E543A312055554932
:10083000443A63656465326132662D343161322D2C
:10084000343734382D396231322D633535633632E1
:100850006633363766660A002F2F20004D31343557
:1008600020533C696E6465783E206F7574206F6616
:100870002072616E67652028302D31290A003F4AB9
:10088000206F7574206F662072616E676520283056
:100890002E303120746F20302E33290A0020466C10
:1008A0006F773A200050726F7465637465642050EE
:1008B000696E0A00206F7574206F662072616E6722
:1008C000650A00536572766F20003A200020536558
:1008D00072766F2000496E76616C69642065787469
:1008E00072756465720A0020643A0020693A00203B
:1008F000703A0064697300656E0043290A00616202
:100900006C656420286D696E2074656D70200043ED
:100910006F6C6420657874727564657320617265AC
:10092000200046696C616D656E742072756E6F751E
:100930007420004D65736820706F696E7420636168
:100940006E6E6F74206265207265736F6C7665647D
:100950000A004D34323120696E636F7272656374C0
:1009600020706172616D6574657220757361676571
:100970000A004F666673657473204170706C696518
:1009800064004572723A20546F6F206661722100D4
:10099000546F6F206661722066726F6D207265669B
:1009A0006572656E636520706F696E740A004545F7
:1009B00050524F4D204F4B0A00506F7765722D6C8F
:1009C0006F7373207265636F76657279200045726C
:1009D000726F722077726974696E6720746F204538
:1009E0004550524F4D210A00363726033C3D380E04
:1009F0002E303E121A1C1808440AFF430809000151
:100A0000627573793A2070617573656420666F72E0
:100A100020696E7075740A00627573793A2070618E
:100A20007573656420666F7220757365720A006263
:100A30007573793A2070726F63657373696E670AB4
:100A4000004D3630300053544F505045442E200056
:100A50005072696E7465722073746F707065642073
:100A600064756520746F206572726F72732E2046F4
:100A7000697820746865206572726F7220616E6497
:100A800020757365204D39393920746F2072657374
:100A9000746172742E202854656D7065726174756E
:100AA00072652069732072657365742E20536574B6
:100AB0002069742061667465722072657374617256
:100AC00074696E67290A004E6F20436865636B7313
:100AD000756D2077697468206C696E65206E756D20
:100AE0006265722C204C617374204C696E653A20EB
:100AF000004E6F20436865636B73756D2077697472
:100B000068206C696E65206E756D6265722C204C74
:100B1000617374204C696E653A2000636865636B8D
:100B200073756D206D69736D617463682C204C6101
:100B30007374204C696E653A20004C696E65204ED6
:100B4000756D626572206973206E6F74204C6173DD
:100B500074204C696E65204E756D6265722B312C68
:100B6000204C617374204C696E653A20004D313120
:100B700030004D313137004D333100534420726520
:100B80006164206572726F720A00446F6E65207036
:100B900072696E74696E672066696C650A004B49FC
:100BA0004C4C20636175736564206279204B494C1D
:100BB0004C20627574746F6E2F70696E0A004B4919
:100BC0004C4C2063617573656420627920746F6F8B
:100BD000206D75636820696E616374697665207441
:100BE000696D65202D2063757272656E7420636F68
:100BF0006D6D616E643A20004732362043616E634A
:100C0000656C6564004732362048656174696E67BB
:100C1000204E6F7A7A6C65004732362048656174E1
:100C2000696E67204265640057616974696E672068
:100C3000666F72206865617475702E0A0046697867
:100C40006564204C656E677468205072696D65003C
:100C5000446F6E65205072696D696E67004D616EFC
:100C600075616C207072696D696E672E2E2E004C56
:100C7000656176696E6720473236003F5370656361
:100C8000696669656420582C5920636F6F726469C6
:100C90006E617465206F7574206F6620626F756E6B
:100CA00064732E0A003F28522965706561742076AE
:100CB000616C7565206E6F7420706C61757369620C
:100CC0006C653B206D757374206265206174206CC7
:100CD0006561737420312E0A003F53706563696645
:100CE000696564206E6F7A7A6C652074656D7065D5
:100CF000726174757265206E6F7420706C617573AB
:100D000069626C652E0A003F5370656369666965A8
:100D1000642066696C616D656E742073697A652004
:100D20006E6F7420706C61757369626C652E0A0059
:100D30003F537065636966696564207072696D65AB
:100D4000206C656E677468206E6F7420706C6175BE
:100D50007369626C652E0A003F537065636966694A
:100D60006564206E6F7A7A6C652073697A65206E8F
:100D70006F7420706C61757369626C652E0A003F38
:100D800052657472616374696F6E204D756C74691D
:100D9000706C696572206D75737420626520737064
:100DA000656369666965642E0A003F53706563690F
:100DB000666965642052657472616374696F6E2040
:100DC0004D756C7469706C696572206E6F742070FB
:100DD0006C61757369626C652E0A003F53706563C0
:100DE0006966696564206C61796572206865696708
:100DF0006874206E6F7420706C61757369626C65C5
:100E00002E0A0043292E0A003F5370656369666904
:100E10006564206265642074656D706572617475C7
:100E20007265206E6F7420706C61757369626C6599
:100E3000202834302D004732362073746172746973
:100E40006E672E2E2E0A005A204F66667365740058
:100E50004C6F6164206D6D00556E6C6F6164206D28
:100E60006D0046696C2E204469612E004F66660055
:100E70004F6E004520696E206D6DC2B300436F6EEA
:100E800066696775726174696F6E00565472617637
:100E9000204D696E00566D696E00566D6178204573
:100EA00000566D6178205A00566D617820590056C1
:100EB0006D6178205800416D6178204500416D6179
:100EC00078205A00416D6178205900416D61782089
:100ED0005800412D54726176656C00412D52657445
:100EE0007261637400416363656C006F6B005265EF
:100EF00073656E643A200043616E6E6F74206F708C
:100F0000656E20737562646972200023646566698A
:100F10006E652044454641554C545F004B642000AB
:100F20004B6920004B702000504944204175746F7C
:100F300074756E652066696E6973686564212050FA
:100F4000757420746865206C617374204B702C205C
:100F50004B6920616E64204B6420636F6E73746113
:100F60006E74732066726F6D2062656C6F77206996
:100F70006E746F20436F6E66696775726174696F16
:100F80006E2E680A00504944204175746F74756E66
:100F900065206661696C6564212074696D656F7593
:100FA000740A00546865726D616C2052756E6177C9
:100FB00061790048656174696E67206661696C6576
:100FC0006400504944204175746F74756E652066E5
:100FD00061696C6564212054656D7065726174751A
:100FE000726520746F6F20686967680A00204B641F
:100FF0003A2000204B693A2000204B703A20000A2A
:1010000020436C617373696320504944200A0020B7
:1010100054753A2000204B753A2000206D61783AD3
:101020002000206D696E3A200020643A2000206282
:101030006961733A2000504944204175746F74759A
:101040006E652073746172740A00504944204175C2
:10105000746F74756E65206661696C6564212054D7
:10106000656D706572617475726520746F6F20684C
:101070006967680A00504944204175746F74756E41
:1010800065206661696C6564212042616420657831
:10109000747275646572206E756D6265720A0045C2
:1010A00072723A207574663820666F6E74206E6FA7
:1010B0007420696E697469616C697A65642E004593
:1010C00072723A207574663820666F6E74206E6F87
:1010D0007420696E697469616C697A65642E004573
:1010E00072723A207574663820666F6E74206E6F67
:1010F0007420696E697469616C697A65642E000098
:101100000C0D00FE07022603BC017FFE08FE08FE50
:1011100005080806000040F0C8888898781005087F
:1011200008060000C0F88888888888F80505050644
:1011300000012030F830200508080600002070F873
:1011400020202020E00509090600FF2070A8A8B88B
:1011500088887020050606060001E08CEA8C8A0A61
:101160000509090600FFF8A88888888888A8F80576
:101170000A0A0600FE205050505088A8A888700324
:10118000030306000340A040FFFFFFFFFFFFFFFF38
:10119000FFFFFFFFFFFFFFFFFFFFFFFFFFFF00005D
:1011A000000605FF0107070602008080808080009E
:1011B00080030303060105A0A0A0050606060000A3
:1011C00050F85050F8500509090600FF2070A8A0FB
:1011D0007028A87020050707060000C8C810204026
:1011E000989805070706000040A0A040A890680155
:1011F00003030602058080800309090601FF2040E1
:10120000408080804040200309090601FF80404063
:1012100020202040408005070706000020A87020FD
:1012200070A8200505050600012020F820200203F3
:10123000030601FFC04080050101060003F8020219
:1012400002060100C0C005070706000008101020B4
:10125000404080050707060000708898A8C888707D
:1012600003070706010040C040404040E005070773
:10127000060000708808102040F8050707060000E7
:10128000F808103008887005070706000010305075
:1012900090F81010050707060000F880F00808888D
:1012A00070050707060000304080F0888870050749
:1012B00007060000F8081010202020050707060088
:1012C000007088887088887005070706000070889D
:1012D0008878081060020505060100C0C000C0C083
:1012E0000206060601FFC0C000C0408003050506D7
:1012F00001012040804020050303060002F800F8A9
:10130000030505060101804020408005070706000F
:101310000070881020200020050707060000708854
:10132000B8A8B88070050707060000708888F8889C
:101330008888050707060000F04848704848F0050F
:101340000707060000708880808088700507070600
:101350000000F04848484848F0050707060000F834
:101360008080F08080F8050707060000F88080F094
:10137000808080050707060000708880809888704C
:10138000050707060000888888F88888880307070B
:10139000060100E04040404040E00507070600002D
:1013A000381010101090600507070600008890A004
:1013B000C0A090880507070600008080808080809C
:1013C000F805070706000088D8A8888888880507D8
:1013D000070600008888C8A89888880507070600BF
:1013E0000070888888888870050707060000F088E4
:1013F00088F080808005070706000070888888A82C
:101400009068050707060000F08888F0A09088051E
:1014100007070600007088807008887005070706B7
:101420000000F82020202020200507070600008863
:10143000888888888870050707060000888888885B
:1014400050502005070706000088888888A8A85003
:101450000507070600008888502050888805070780
:10146000060000888850202020200507070600007D
:10147000F80810204080F80309090601FFE0808089
:101480008080808080E005070706000080404020C3
:101490001010080309090601FFE020202020202069
:1014A00020E0050303060005205088050101060021
:1014B000FEF803030306010580402005050506002C
:1014C0000070087888780507070600008080F0889B
:1014D0008888F00505050600007080808870050783
:1014E0000706000008087888888878050505060042
:1014F000007088F08070050707060000304840E063
:101500004040400507070600FE708888887808700C
:101510000507070600008080F08888888803070791
:101520000601004000C0404040E00409090601FEF9
:1015300010003010101010906005070706000080A2
:10154000808890E09088030707060100C040404073
:101550004040E0050505060000D0A8A8A8A805059C
:1015600005060000B0C888888805050506000070DB
:10157000888888700507070600FEF0888888F08054
:10158000800507070600FE78888888780808050522
:1015900005060000B0C880808005050506000078BB
:1015A000807008F00507070600002020F8202020A2
:1015B0001805050506000088888898680505050651
:1015C000000088888850200505050600008888A846
:1015D000A85005050506000088502050880507071B
:1015E0000600FE888888502040800505050600001A
:1015F000F8102040F80309090601FF204040408010
:10160000404040200109090602FF808080808080E0
:101610008080800309090601FF804040402040404F
:10162000408005030306000248A890FF506C6561E6
:101630007365205265736574005052494E5445528B
:101640002048414C5445440025533A202553004B33
:10165000494C4C45442E20005072696E74657220CE
:1016600068616C7465642E206B696C6C282920633A
:10167000616C6C6564210A0053544F505045442EF0
:1016800020005072696E7465722073746F7070659B
:10169000642064756520746F206572726F72732E9A
:1016A0002046697820746865206572726F722061C7
:1016B0006E6420757365204D39393920746F20723E
:1016C0006573746172742E202854656D7065726143
:1016D000747572652069732072657365742E20536A
:1016E0006574206974206166746572207265737414
:1016F000617274696E67290A006563686F3A004514
:1017000072726F723A0042696C696E656172204C48
:101710006576656C696E6720477269643A0A0053A2
:10172000544F502063616C6C656420626563617521
:101730007365206F6620424C546F75636820657234
:10174000726F72202D2072657374617274207769D4
:101750007468204D3939390A0053544F5020636161
:101760006C6C65642062656361757365206F6620CB
:10177000424C546F756368206572726F72202D2021
:10178000726573746172742077697468204D393999
:10179000390A00486F74656E6420746F6F20636F40
:1017A0006C640A004A756E6374696F6E20446576D6
:1017B000004573746570732F6D6D005A7374657096
:1017C000732F6D6D005973746570732F6D6D0058B4
:1017D00073746570732F6D6D00416476616E63651F
:1017E000642053657474696E6773003F0043616ED3
:1017F00063656C00496E697400496E697469616C57
:10180000697A6520454550524F4D00537465707399
:101810002F6D6D004A65726B00416363656C657284
:101820006174696F6E0056656C6F63697479004D01
:1018300061696E004D6F74696F6E003F004E657890
:101840007420436F726E657200446F6E65004E6562
:10185000787400486F6D696E672058595A00537448
:101860006F72652053657474696E6773004C6F61A5
:10187000642053657474696E677300466164652003
:10188000486569676874004732380A4D343820501B
:101890003130004D34382050726F626520546573CA
:1018A0007400424C546F756368005A204F6666732B
:1018B0006574004C6576656C20436F726E6572735B
:1018C000004F6666004F6E00426564204C65766589
:1018D0006C696E67004732380A473239004732393F
:1018E000004C6576656C20426564004732380A47D3
:1018F000312046323430205A30004175746F204810
:101900006F6D65004D61696E005072696E74205094
:101910006175736564004D656469612052656D6F22
:10192000766564004D6564696120496E7365727403
:10193000656400534F564F4C20535630312052654A
:101940006164792E005072696E74696E672E2E2E56
:10195000005072696E742041626F72746564004D4C
:101960003235005061757365205072696E740041A4
:101970006476616E6365642053657474696E677321
:10198000004D38340044697361626C65205374659E
:10199000707065727300473238004175746F20486B
:1019A0006F6D65004D61696E0050726568656174A8
:1019B00020504C4120456E6400507265686561742A
:1019C00020504C4120426564005072656865617426
:1019D000204142532042656400507265686561741D
:1019E0002041425320456E640054656D70657261FC
:1019F0007475726500507265686561742041425368
:101A000020436F6E66005072656865617420504CAB
:101A10004120436F6E6600436F6F6C646F776E009A
:101A20005072656865617420414253005072656868
:101A300065617420504C410046616E2053706565AD
:101A40006400426564004E6F7A7A6C65004D61698E
:101A50006E005A204F666673657400466C6F77009F
:101A600046616E20537065656400426564004E6F88
:101A70007A7A6C65005370656564004D61696E002B
:101A80000000914300007A4300009B4300000000E7
:101A90000000000000000000290A0020627974653F
:101AA000733B20637263200053657474696E6773BF
:101AB0002053746F726564202800454550524F4D85
:101AC000206461746173697A65206572726F722E29
:101AD0000A00290A002062797465733B20637263EF
:101AE00020002073746F7265642073657474696E6E
:101AF00067732072657472696576656420280020BA
:101B00002863616C63756C6174656429210A002027
:101B1000213D2000454550524F4D20435243206DFA
:101B200069736D61746368202D202873746F72650A
:101B3000642920002053697A653A2000496E646563
:101B4000783A2000204D61726C696E3D5637342919
:101B50000A00454550524F4D2076657273696F6E8D
:101B6000206D69736D617463682028454550524F3C
:101B70004D3D0002000000000000000000000000D9
:101B80000000000000000000000000000000000055
:101B90000000000000000000000000000000000045
:101BA0000000000000000000000000000000000035
:101BB0000000000000000000000000000000000025
:101BC0000000000000000000000000000000000015
:101BD0000000000000000000000000000000000005
:101BE00000000000000000000000000000000000F5
:101BF00000000000000000000000000000000000E5
:101C000000000000000000000000000000000000D4
:101C100000000000000000000000000000000000C4
:101C200000000000000000000000000000000000B4
:101C300000000000000000000000000000000000A4
:101C40000000000000000000000000000000000094
:101C50000000000000000000000000000000000084
:101C60000000000000000000000000000000000074
:101C70000000000000000000000000000000000064
:101C80000000000000000000000000000000000054
:101C90000000000000000000000000000000000044
:101CA0000000000000000000000000000000000034
:101CB0000000000000000000000000000000000024
:101CC000000000000003E40000000000078000F0B6
:101CD0003FFF000000041C00000000000180031C06
:101CE0000781C00000080C00000000000180030E06
:101CF0000780E00000100400000000000180030ED7
:101D00000780700000100400000000000180030E36
:101D10000780700000180000000000000180000E25
:101D200007803800001C0000000000000180000E49
:101D300007803800001FC000000000000180000C78
:101D400007803800000FF803E1F8783E01800010AA
:101D500007803C000007FC0C307000C3018001F0DC
:101D600007803C000001FE1C187021C18180001C0E
:101D700007803C0000001E1C1C3801C1C180000E01
:101D800007803C000000063C1C3843C1C1800007AE
:101D9000078038000000023C1C1C03C1C180000702
:101DA000078038000000023C1C1C83C1C180000772
:101DB000078038000010023C1C0E03C1C1800707D9
:101DC000078070000010021C1C0F01C1C1800707B2
:101DD000078070000018041C180601C18180060EDF
:101DE0000780E000001C080C300600C30180020CD4
:101DF0000781C0000013F003E000003E07E001F09F
:101E00003FFF000000000000000000000000000094
:101E100000000000000000000000000000000000C2
:101E200000000000000000000000000000000000B2
:101E300000000000000000000000000000000000A2
:101E40000000000000000000000000000000000092
:101E50000000000000000000000000000000000082
:101E60000000000000000000000000000000000072
:101E70000000000000000000000000000000000062
:101E80000000000000000000000000000000000052
:101E90000000000000000000000000000000000042
:101EA0000000000000000000000000000000000032
:101EB0000000000000000000000000000000000022
:101EC0000000000000000000000000000000000012
:101ED0000000000000000000000000000000000002
:101EE00000000000000000000000000000000000F2
:101EF00000000000000000000000000000000000E2
:101F000000000000000000000000000000000000D1
:101F100000000000000000000000000000000000C1
:101F200000000000000000000000000000000000B1
:101F300000000000000000000000000000000000A1
:101F40000000000000000000000000000000000091
:101F50000000000000000000000000000000000081
:101F60000000000000000000000000000000000071
:101F7000000000004D313030302053002020506CE4
:101F8000616E6E65724275666665724279746573DC
:101F90003A20002046726565204D656D6F72793A72
:101FA0002000436F6D70696C65643A204A616E2051
:101FB000313620323032300A00204C6173742055A3
:101FC0007064617465643A20323031392D31322DBC
:101FD0003031207C20417574686F723A20534F561F
:101FE0004F4C0A00322E302E300A004D61726C695F
:101FF0006E0020536F667477617265205265736559
:10200000740A00205761746368646F6720526573B7
:1020100065740A002042726F776E206F75742052CB
:10202000657365740A002045787465726E616C2072
:1020300052657365740A00506F77657255700A00B7
:1020400073746172740A006175746F25632E670082
:102050004732385859006572726F7220777269740E
:10206000696E6720746F2066696C650A00446F6E44
:102070006520736176696E672066696C652E0A005B
:102080004D323900456E6473746F707300255320B0
:10209000256320256320256320256300205A3A000C
:1020A00020593A0020583A00656E6473746F70735B
:1020B000206869743A200043616E6E6F74206F70FF
:1020C000656E2073756264697220005344206361F9
:1020D0007264206F6B0A006F70656E526F6F7420B0
:1020E0006661696C65640A00766F6C756D652E6952
:1020F0006E6974206661696C65640A0053442069E6
:102100006E6974206661696C0A004D3234004D328C
:10211000332025730057726974696E6720746F20CD
:1021200066696C653A20002E0A006F70656E206645
:1021300061696C65642C2046696C653A20002E0A42
:10214000006F70656E206661696C65642C2046695D
:102150006C653A200046696C652073656C65637434
:1021600065640A002053697A653A200046696C6507
:10217000206F70656E65643A200066726573680052
:10218000646F696E67002066696C653A20004E6F67
:10219000772000454E4420535542524F5554494EE6
:1021A000450A002220706F73002220706172656EF4
:1021B000743A2200535542524F5554494E452043DC
:1021C000414C4C207461726765743A2200747279D4
:1021D000696E6720746F2063616C6C207375622D6B
:1021E00067636F64652066696C65732077697468DE
:1021F00020746F6F206D616E79206C6576656C73ED
:102200002E204D4158206C6576656C2069733A31FB
:102210000A002E0A0044656C6574696F6E20666161
:10222000696C65642C2046696C653A200046696CCF
:10223000652064656C657465643A002E0A006F70F1
:10224000656E206661696C65642C2046696C653A30
:10225000200057726974696E6720746F2066696C1C
:10226000653A2000220A00556E6B6E6F776E206310
:102270006F6D6D616E643A20220020746F6F206C68
:102280006F6E6720657874727573696F6E207072F7
:102290006576656E7465640A0020636F6C64206502
:1022A0007874727573696F6E2070726576656E747E
:1022B00065640A007C3C3E5E2B3D3F2F5B5D3B2C02
:1022C0002A225C0024F4D43050C38E20C2A24017CE
:1022D000828B7011127A910D816CD90AA861E10884
:1022E000C7586607615143061E4B5D05C145A704EB
:1022F0001A411104093D9803713931034036DB025C
:1023000065339102D4305402802E1D02632CEE01FD
:10231000752AC501B028A001102781018F2564010D
:102320002B244B01E0223401AC211F018D200D0133
:10233000801FFC00841EED00971DDF00B81CD2003A
:10234000E61BC600201BBC00641AB200B219A8002C
:102350000A19A0006A189900D117910040178B0044
:10236000B516840031167E00B31579003A15730056
:10237000C7146F0058146A00EE13660088136300D8
:1023800025135E00C7125B006C1257001512540033
:10239000C111510070114F0021114B00D61049009E
:1023A0008D1047004610440002104200C00F40004C
:1023B000800F3E00420F3C00060F3B00CB0E380062
:1023C000930E37005C0E3500270E3400F30D3200FB
:1023D000C10D3100900D3000600D2E00320D2D002A
:1023E000050D2C00D90C2B00AE0C2900850C290002
:1023F0005C0C2700350C27000E0C2600E80B24008F
:10240000C40B2400A00B23007D0B23005A0B2100DA
:10241000390B2100180B2000F80A1F00D90A1E00F2
:10242000BB0A1E009D0A1D00800A1D00630A1C00D5
:10243000470A1B002C0A1B00110A1A00F7091A0090
:10244000DD091900C4091900AB0919009209170028
:102450007B091800630917004C091600360916009D
:10246000200916000A091500F5081500E0081400F7
:10247000CC081400B8081400A40814009008130035
:102480007D0812006B08130058081200460812005D
:10249000340811002308110012081100010811006E
:1024A000F0071000E0071000D0071000C007100070
:1024B000B0070F00A107100091070E0083070F005F
:1024C00074070F0065070E0057070E0049070E003E
:1024D0003B070D002E070E0020070D0013070D000F
:1024E00006070D00F9060C00ED060D00E0060C00D5
:1024F000D4060C00C8060C00BC060C00B0060C008C
:10250000A4060B0099060C008D060B0082060B003A
:1025100077060B006C060B0061060A0057060B00DD
:102520004C060A0042060A0038060A002E060A0077
:1025300024060A001A060A001006090007060A0007
:10254000FD050900F4050900EB050900E205090095
:10255000D9050900D0050900C7050900BE05090015
:10256000B5050800AD050800A50509009C05080093
:10257000940508008C050800840508007C05080007
:10258000740508006C050700650508005D05070077
:10259000560508004E0507004705070040050800DE
:1025A00038050700310507002A0507002305070045
:1025B0001C050600160507000F05070008050600A4
:1025C00002050700FB040600F5040700EE04060000
:1025D000E8040600E2040700DB040600D504060058
:1025E000CF040600C9040600C3040600BD040600AB
:1025F000B7040600B1040500AC040600A6040600FA
:10260000A00405009B040600950405009004060044
:102610008A04050085040500800406007A0405008C
:1026200075040500700405006B04050066040500D0
:10263000610405005C040500570405005204050010
:102640004D04050048040500430405003E04040051
:102650003A04050035040500300404002C0405008C
:1026600027040400230405001E0404001A040400C7
:1026700016040500110404000D04040009040500FB
:102680000404040000040400FC030400F803040034
:10269000F4030400F0030400EC030400E803040066
:1026A000E4030400E0030400DC030400D803040096
:1026B000D4030400D0030400CC030400C8030300C7
:1026C000C503030024F404D9201BC40C5C0E980439
:1026D000C4095F0265077101F405F900FB04B3004A
:1026E00048048700C10369005803550003034500EF
:1026F000BE023A008402310053022A00290225005A
:1027000004022000E4011C00C8011900AF011700F9
:102710009801140084011300710110006101100080
:1027200051010E0043010D0036010B002B010B007F
:1027300020010B00150109000C010900030108002C
:10274000FB000800F3000800EB000700E4000600AF
:10275000DE000600D8000600D2000600CC0005000E
:10276000C7000500C2000500BD000400B900040058
:10277000B5000400B1000400AD000400A90004008D
:10278000A5000300A20003009F0004009B000300BB
:1027900098000300950002009300030090000300DE
:1027A0008D0002008B0003008800020086000200FA
:1027B00084000300810002007F0002007D0002000F
:1027C0007B00020079000200770001007600020021
:1027D0007400020072000100710002006F0002002C
:1027E0006D0001006C0002006A0001006900020037
:1027F000670001006600010065000100640002003E
:102800006200010061000100600001005F00020041
:102810005D0001005C0001005B0001005A00010046
:102820005900010058000100570001005600010046
:102830005500010054000100530000005300010046
:102840005200010051000100500001004F00010042
:102850004E0000004E0001004D0001004C00010040
:102860004B0000004B0001004A000100490001003C
:102870004800000048000100470001004600000039
:102880004600010045000000450001004400010031
:10289000430000004300010042000000420001002C
:1028A0004100000041000100400001003F00000025
:1028B0003F0001003E0000003E0001003D0000001E
:1028C0003D0001003C0000003C0000003C00010015
:1028D0003B0000003B0001003A0000003A0001000C
:1028E0003900000039000100380000003800000005
:1028F00038000100370000003700010036000000FA
:1029000036000000360001003500000035000000F0
:1029100035000100340000003400000034000100E4
:1029200033000000330000003300010032000000DB
:1029300032000000320001003100000031000000D0
:1029400031000100300000003000000030000100C4
:102950002F0000002F0000002F0000002F000100BA
:102960002E0000002E0000002E0001002D000000AF
:102970002D0000002D0000002D0001002C000000A3
:102980002C0000002C0000002C0001002B00000097
:102990002B0000002B0000002B0001002A0000008B
:1029A0002A0000002A0000002A000100290000007F
:1029B0002900000029000000290000002900010072
:1029C0002800000028000000280000002800000067
:1029D0002800010027000000270000002700000059
:1029E000270000002700010026000000260000004C
:1029F000260000002600000026000100250000003F
:102A00002500000025000000250000002500000032
:102A10002500010024000000240000002400000024
:102A20002400000024000100230000002300000017
:102A3000230000002300000023000000230000000A
:102A400023000100220000002200000022000000FC
:102A500022000000220000002200010021000000EE
:102A600021000000210000002100000021000000E2
:102A700021000000210001002000000020000000D3
:102A800020000000200000002000000020000000C6
:102A900020000000200001001F0000001F000000B7
:102AA0001F0000001F0000001F0000001F000000AA
:102AB0001F0001001E0000001E0000001E0000009C
:102AC0001E000000043700001E290000511B0000FA
:102AD0005810000010090000CC040000780200002B
:102AE0004101000042656400453100626564002CCC
:102AF0002073797374656D2073746F7070656421D1
:102B0000204865617465725F49443A2000486561F8
:102B100074696E67206661696C65640054686572EB
:102B20006D616C2052756E617761790048656174E2
:102B3000696E67204661696C656400486561746907
:102B40006E67206661696C656400546865726D61CA
:102B50006C2052756E61776179002568753A253071
:102B60003268750025303268753A25303268750054
:102B7000256875642025303268753A2530326875CD
:102B800000202020202020200020202020001FE0E6
:102B90002010201020101020102020102010303085
:102BA0000840048003001FE03FF03FF03FF01FE0CB
:102BB0001FE03FF03FF03FF00FC0078003003FFFF2
:102BC000F038007030FC3020FC10207810203010DD
:102BD0002C00D02E31D02F7BD02F7BD02E31D02C7B
:102BE00000D020301020781020FC1030FC3038004D
:102BF000703FFFF03FFFF0380070318630238710C0
:102C00002787902F87D02F03D020301020781020D6
:102C100078102030102F03D02F87D027879023875C
:102C2000103186303800703FFFF01FFFF81FFFF8AB
:102C300004104002082002082004104008208010E0
:102C400041001041000820800410400000001FFFD8
:102C5000F81FFFF800000000000000000000000066
:102C60000000000000000000000000000000000064
:102C70000000000000000000000000001EF79C049F
:102C8000003F633E0C006363633C006063630C00C1
:102C90006063630C003C63630C001E36630C00032E
:102CA00036630C000336630C00631C630C007E1C4F
:102CB0003E3F003C081C3F000000000000000000F8
:102CC0000000000000000000000000000000000004
:102CD00000000000000000000000000000000000F4
:102CE000202D20496E76616C696420657874727558
:102CF000646572206E756D62657220210A00700134
:102D00002C0190012701B0012201C0011D01F00139
:102D100018011002130130020E0160020901900235
:102D20000401C002FF000003FA004003F500800325
:102D3000F000D003EB002004E6007004E100E004A2
:102D4000DC004005D700C005D2004006CD00D0060B
:102D5000C8008007C3003008BE00F008B900C009F1
:102D6000B400B00AAF00B00BAA00D00CA500000E52
:102D7000A000500F9B00C01096005012910000144C
:102D80008C00C0158700B0178200B0197D00D01BE1
:102D90007800001E730040206E0090226900F0242D
:102DA000640040275F0090295A00E02B5500102E48
:102DB000500020304B0010324600E0334100903587
:102DC0003C001037370070383200A0392D00B03A7F
:102DD0002800A03B2300603C1E00103D1900903DE0
:102DE0001400103E0F00703E0A00C03E0500003F78
:102DF0000000403FFBFF803FF6FFC03FF1FF457200
:102E0000723A204D415854454D50004D415854455B
:102E10004D5020747269676765726564004572720F
:102E20003A204D494E54454D50004D494E54454D64
:102E30005020747269676765726564004D3834208C
:102E4000582059205A204500202F002042403A00A7
:102E500020403A0020573A0020573A00496E7661E8
:102E60006C69642065787472756465720A0000008C
:102E70002100240027002A002D003000330001012A
:102E80000000040107010A010000220025002800BB
:102E90002B002E0031003400020100000501080162
:102EA0000B01000020002300260029002C002F0029
:102EB00032000001000003010601090105050505B6
:102EC000070508080808020202020A0A08080404A2
:102ED00004040101010101010101030303030303D0
:102EE0000303040707070C0C0C0C0C0C0C0C02025F
:102EF000020206060606060606060B0B0B0B0B0B5C
:102F00000B0B0102102020080810204010204080E8
:102F1000020102010804020101020408102040809D
:102F2000804020100804020180040201804020102B
:102F30000804020108040201010204081020408074
:102F4000010204081020408000000A0B02090C0D49
:102F50000E0807030401000000000000000000004C
:102F60000000000000000000000000000000000061
:102F7000000000001211100000000000000000001E
:102F800000000000000000000000000000004D6F85
:102F900076652025736D6D00004D6F766520302EAF
:102FA000316D6D004D6F766520316D6D004D6F7622
:102FB000652031306D6D004D6F7665204178697305
:102FC00000486F74656E6420746F6F20636F6C646B
:102FD000004578747275646572004D6F7665205A8D
:102FE000004D6F76652059004D6F7665205800437F
:102FF00068616E67652046696C616D656E74005529
:103000006E6C6F61642046696C616D656E74004C16
:103010006F61642046696C616D656E740050726505
:10302000686561742041425300507265686561743F
:1030300020504C410050726568656174204375737F
:10304000746F6D004261636B005061726B696E67F3
:103050002E2E2E0000005761697420666F72006684
:10306000696C616D656E74206368616E676500747C
:103070006F207374617274005761697420666F7297
:103080000066696C616D656E7420756E6C6F61644D
:1030900000004E6F7A7A6C652068656174696E67AE
:1030A00000506C6561736520776169742E2E2E0067
:1030B00000507265737320627574746F6E00746F64
:1030C0002068656174206E6F7A7A6C650000496EC5
:1030D000736572742066696C616D656E7400616EF3
:1030E0006420707265737320627574746F6E0074FF
:1030F0006F20636F6E74696E756500576169742027
:10310000666F720066696C616D656E74206C6F61CC
:10311000640000507265737320427574746F6E00A2
:10312000746F20726573756D65207072696E7400BE
:10313000005761697420666F72207072696E740046
:10314000746F20726573756D652E2E2E00005761A9
:10315000697420666F720066696C616D656E7420BB
:1031600070757267650000313135003A200030001B
:103170003A20004245443A4550434F5320313030C5
:103180004B0052756E617761792057617463683ABC
:10319000204F4E004D61782054656D7000323630FE
:1031A000003A20004D696E2054656D700030003A81
:1031B000200045313A204550434F53203130304BA9
:1031C00000505355004D45414E2057454C4C003A58
:1031D000200050726F746F636F6C00312E30003AB4
:1031E00020004261756400313135323030003A20C0
:1031F0000052414D505320312E3300687474703AA0
:103200002F2F736F766F6C33642E636F6D00534F87
:10321000564F4C205356303100322E302E30004D58
:1032200061726C696E00546865726D6973746F7257
:103230007300426F61726420496E666F005072695C
:103240006E74657220496E666F004D61696E004D47
:10325000313030300053746F70205072696E7400DA
:10326000526573756D65205072696E74004F757488
:10327000616765205265636F76657279003F004231
:1032800061636B0053746F70005072696E742066D6
:10329000726F6D204D65646961004D323100436885
:1032A000616E6765204D656469610041626F757488
:1032B000205072696E74657200436F6E666967753F
:1032C000726174696F6E00426564204C6576656C4E
:1032D000696E670054656D70657261747572650022
:1032E0004D6F74696F6E00526573756D6520507215
:1032F000696E7400416476616E6365642053657421
:1033000074696E67730054756E650053746F702036
:103310005072696E74005061757365205072696EE9
:1033200074004E6F204D6564696100496E666F20C0
:1033300053637265656E002E0A006F70656E2066BD
:1033400061696C65642C2046696C653A20005448BC
:1033500045524D414C2052554E41574159005468F9
:1033600065726D616C2052756E6177617900554EA2
:103370004C4F41442046494C414D454E54004C4F22
:1033800041442046494C414D454E540046494C412C
:103390004D454E54204348414E4745004C6F6164B3
:1033A0002053657474696E677300526573746F722D
:1033B00065206661696C736166650053746F726540
:1033C0002053657474696E6773004F757461676527
:1033D000205265636F766572790046696C616D6530
:1033E0006E74004F6666004F6E0052756E6F757496
:1033F0002053656E736F720052657472616374005E
:103400004368616E67652046696C616D656E740026
:103410004D61696E004D37303220542564004D36C1
:10342000303020423020542564004D373032203B6C
:103430002564004D37303120542564004D3730323B
:10344000004D373031004D36303020423000436F70
:103450006E66696775726174696F6E00436F6E7432
:10346000696E7565004F6666004F6E0052756E6F2F
:1034700075742053656E736F7200507572676520A6
:103480006D6F726500524553554D45204F5054495C
:103490004F4E533A005052494E54205041555345D7
:1034A000440020204E6F7A7A6C653A20004D363009
:1034B000303A20546F6F20436F6C6400486F74651E
:1034C0006E6420746F6F20636F6C640A00496E73C2
:1034D0006572742066696C616D656E7420616E64DE
:1034E00020707265737320627574746F6E0A005079
:1034F0007265737320627574746F6E20746F2068C8
:10350000656174206E6F7A7A6C650A004D323420E2
:1035100053256C642054256C64004739322E3920C1
:1035200045257300473120462564004739322E393E
:10353000205A2573004731205A302046323030005F
:1035400047312058257320592573204633303030B9
:10355000004D34323020532569205A2573004D31F7
:1035600030362050256920532569004D31303920EF
:10357000532569004D31393020532569004D3230D3
:103580003020442573004739322E392045305A30D7
:103590000A47315A320A47323852305859004D34AE
:1035A0003230205330205A300020496E76616C69E9
:1035B000642065787472756465722000446576696C
:1035C0006174696F6E0025533A202573005374614E
:1035D0006E6461726420446576696174696F6E3AE5
:1035E00020002052616E67653A2000204D61783AD4
:1035F0002000204D696E3A20004D65616E3A200032
:1036000046696E6973686564210A002072616E679D
:10361000653A2000206D61783A2000206D696E3A8D
:103620002000207369676D613A2000206D65616E2E
:103630003A20003A207A3A2000206F662000476F37
:10364000696E6720746F3A20580043570A0020645F
:1036500069723A0020616E676C653A00537461725A
:1036600074207261646975733A004D343820506F6C
:10367000696E740025533A2025642F256400506F2D
:10368000736974696F6E696E672074686520707203
:103690006F62652E2E2E0A003F4E756D6265722098
:1036A0006F66206C65677320696E206D6F76656D3F
:1036B000656E74206E6F7420706C61757369626CD6
:1036C000652028302D3135292E0A003F2028582C1E
:1036D0005929206F7574206F6620626F756E647350
:1036E0002E0A003F53616D706C652073697A652006
:1036F0006E6F7420706C61757369626C652028341C
:103700002D3530292E0A004D3438205A2D50726F35
:103710006265205265706561746162696C69747973
:1037200020546573740A003F2856296572626F73CE
:1037300065206C6576656C20696D706C6175736968
:10374000626C652028302D34292E0A002054002078
:103750005200416363656C65726174696F6E3A20F3
:103760005000204D39322058004F4646004F4E0041
:1037700020580020204D61783A2000200020204D64
:10378000696E3A2000536F667420656E6473746FBF
:1037900070733A20006F70656E0054524947474578
:1037A000524544003A200066696C616D656E740094
:1037B0007A5F6D696E00795F6D696E00785F6D6923
:1037C0006E005265706F7274696E6720656E647307
:1037D000746F70207374617475730A00205A3A0014
:1037E00020593A0020436F756E7420583A002045E6
:1037F0003A00205A3A0020593A00583A0020746F93
:103800006F206C6F6E6720657874727573696F6E68
:103810002070726576656E7465640A0020636F6C53
:103820006420657874727573696F6E207072657646
:10383000656E7465640A00486F6D696E6720466145
:10384000696C6564000000000000000000000000DA
:10385000000000484200004842000080405761726A
:103860006E696E673A20486F6D696E672042756DAC
:10387000702044697669736F72203C20310A00021F
:1038800002040000A0400000A04000000040000032
:10389000914300007A4300009B43FFFFFF436D64A8
:1038A0003A2053746F7700436D643A204465706C1E
:1038B0006F7900436D643A2053572D4D6F64650056
:1038C000436D643A2053656C662D546573740043F0
:1038D0006D643A20526573657400426564204C65DE
:1038E00076656C696E6700556E526574205600559A
:1038F0006E526574206D6D00486F70206D6D0052C2
:10390000657472616374202056005265747261633D
:1039100074206D6D004175746F526574722E004392
:103920006F6E66696775726174696F6E0042656477
:10393000004E6F7A7A6C650046616E205370656543
:10394000640054656D7065726174757265005072C3
:10395000696E742066726F6D204D656469610050F8
:10396000726F62696E67204661696C65640A005017
:10397000726F62696E67204661696C656400205AE7
:103980003A200020593A200042656420583A20002D
:10399000486F6D6520257325732573204669727302
:1039A0007400496E736572742066696C616D656E32
:1039B0007420616E64207072657373206275747414
:1039C0006F6E0A004361703A0050726F6265204F5B
:1039D0006666736574205A0050726F6265204F6688
:1039E000667365745A3A2000290A0020746F20001B
:1039F0003F5A206F7574206F662072616E67652074
:103A00002800290A0020746F20003F59206F757428
:103A1000206F662072616E676520282D00290A00DC
:103A200020746F20003F58206F7574206F662072DD
:103A3000616E676520282D0050726F6265204F66A9
:103A400066736574205800220A00656E717565758D
:103A500065696E672022003F0053746172742050C4
:103A600072696E740043616E63656C005072696EBA
:103A7000740043616E6E6F7420656E74657220739E
:103A800075626469723A2000022E2E004D61696EE3
:103A9000004D6F74696F6E004F46460A00466164C0
:103AA00065204865696768742000426564204C653C
:103AB00076656C696E6720004661696C6564207488
:103AC0006F20656E61626C6520426564204C65768E
:103AD000656C696E670A00496E76616C6964206D79
:103AE0006573682E0A004731205831373320593129
:103AF00032352046333030300A4731205A302046A4
:103B00003234300050726F62696E6720506F696E98
:103B1000740025532025692F2569002E0A002F00E7
:103B200050726F62696E67206D65736820706F698F
:103B30006E742000202844525952554E29004732B5
:103B400039204175746F20426564204C6576656C40
:103B5000696E67003F20284C2C522C462C422920AD
:103B60006F7574206F6620626F756E64732E0A0025
:103B70003F2856296572626F7365206C6576656CA7
:103B800020696D706C61757369626C652028302DD9
:103B900034292E0A00426164205A2076616C7565D2
:103BA0000A004E6F2062696C696E656172206772EF
:103BB00069640A0048617264636F646564204465E7
:103BC0006661756C742053657474696E6773204CFC
:103BD0006F616465640A000000FA430000FA430064
:103BE00000A0400000C8410000A0420000A0420028
:103BF00000C8430080CF43F4010000F401000064DA
:103C0000000000E80300003A0A0020204D3630335F
:103C1000200020204D34313220530046696C616D04
:103C2000656E742072756E6F75742073656E736F38
:103C3000723A0A002055004C0046696C616D656E51
:103C400074206C6F61642F756E6C6F6164206C659D
:103C50006E677468733A0A0020204D383531205859
:103C6000005A2D50726F6265204F6666736574004E
:103C700020204D3230392053004175746F2D52652C
:103C800074726163743A20533D3020746F2064690C
:103C90007361626C652C203120746F20696E7465CD
:103CA000727072657420452D6F6E6C79206D6F7621
:103CB000657320617320726574726163742F72651D
:103CC000636F7665720A0020460020570020204D61
:103CD0003230382053005265636F7665723A205354
:103CE0003C6C656E6774683E20463C756E69747303
:103CF0002F6D3E0A0020460020570020204D323014
:103D000037205300526574726163743A20533C6CDF
:103D1000656E6774683E20463C756E6974732F6DDE
:103D20003E205A3C6C6966743E0A0020204D3431B6
:103D300033205300506F7765722D4C6F7373205290
:103D400065636F766572793A0A0020440020490065
:103D500020204D3330312050005049442073657489
:103D600074696E67733A0A002046002042002048BA
:103D70000020204D3134352053004D617465726947
:103D8000616C2068656174757020706172616D6529
:103D9000746572733A0A00204A00202047323920A5
:103DA0005720490020204D34323020530041757493
:103DB0006F20426564204C6576656C696E673A0ACF
:103DC0000020204D323036205800486F6D65206F3E
:103DD00066667365743A0A00204A00205400205336
:103DE0000020204D323035204200204A3C6A756E5A
:103DF000635F6465763E00416476616E6365643A34
:103E000020423C6D696E5F7365676D656E745F74AB
:103E1000696D655F75733E20533C6D696E5F6665C5
:103E20006564726174653E20543C6D696E5F7472A6
:103E30006176656C5F66656564726174653E0020DD
:103E4000540020520020204D323034205000416375
:103E500063656C65726174696F6E2028756E697434
:103E6000732F7332293A20503C7072696E745F610F
:103E70006363656C3E20523C726574726163745F6B
:103E8000616363656C3E20543C74726176656C5F5F
:103E9000616363656C3E0A0020204D32303120584A
:103EA000004D6178696D756D20416363656C657265
:103EB0006174696F6E2028756E6974732F7332296F
:103EC0003A0A00204500205A0020590020204D3297
:103ED00030332058004D6178696D756D20666565D9
:103EE0006472617465732028756E6974732F732909
:103EF0003A0A0053746570732070657220756E699C
:103F0000743A0A0020204D3230302044300A00201C
:103F1000204D3230302044002044697361626C656A
:103F2000640A0046696C616D656E74207365747413
:103F3000696E67733A0020204D3134392043203BAD
:103F400020556E69747320696E2043656C736975C2
:103F5000730A0020286D6D2900202047323120206F
:103F600020203B20556E69747320696E206D6D00B2
:103F70001401000111241FBECFEFD1E2DEBFCDBF7F
:103F800000E00CBF13E0A0E0B2E0E2EBFCE902E0ED
:103F90000BBF02C007900D92A234B107D9F726E1FA
:103FA000A2E4B3E001C01D92AD3BB207E1F71FE10F
:103FB000C9EBDFE100E006C021970109802FFE0177
:103FC0000F94B64DC83BD10780E00807A9F70F94BE
:103FD00070360D94484E0C9400002F923F924F92F1
:103FE0005F926F927F928F929F92AF92BF92CF9289
:103FF000DF92EF92FF920F931F93CF93DF93CDB792
:10400000DEB7A9970FB6F894DEBF0FBECDBF89A764
:1040100020912E1628A781E080932E1680914E16AF
:104020008D3409F401C4843511F40C94BA31873409
:1040300011F00C94C13180914C1690914D168A313B
:10404000910509F443C1E4F4843091053CF48230D5
:1040500091050CF05DC097FF32C0E2C38A30910534
:1040600009F42AC124F4049709F4E7C0D9C38B30BA
:10407000910509F426C1459711F40C94C331D0C3BE
:104080008E31910509F471C144F48C31910509F424
:104090003BC10CF41FC114E057C18A35910509F4E6
:1040A00024C224F48A9709F4DBC2BAC38B35910584
:1040B00009F41FC28C35910509F420C2B1C3809167
:1040C0002602882311F40C94C3310E94E8EE8091FB
:1040D0007216882311F40C94FE3185E40E94356831
:1040E000882311F40C94FE3188E50E943568811113
:1040F0000C94FE3189E50E94356881110C94FE31E3
:104100008AE50E94356881110C94FE310C94CC3103
:1041100020912602222311F40C94C33111E002975E
:1041200009F010E00E94E8EE19821A821B821C82BC
:104130001D821E821F82188682E50E9430438823DA
:1041400009F44BC00E94F9426B017C0120E030E091
:10415000A9010F941C44882309F455C080916E086E
:1041600090916F08A0917008B09171088C8F9D8F0D
:10417000AE8FBF8F8091720890917308A0917408E0
:10418000B091750888A399A3AAA3BBA38090021637
:1041900090900316A0900416B09005164090061655
:1041A000509007166090081670900916A5019401AA
:1041B0006C8D7D8D8E8D9F8D0F941C4481110C9480
:1041C0002932A301920168A179A18AA19BA10F9430
:1041D0001C448823C1F00C94293289E40E943043A6
:1041E000882331F00E94F94269837A838B839C8310
:1041F0008AE40E943043882331F00E94F9426D83A3
:104200007E838F83988720E030E0A90169817A81DD
:104210008B819C810F941C4481110C94DD3220E031
:1042200030E0A9016D817E818F8198850F941C44B7
:1042300081110C94DD320C94F03280E50E94304301
:10424000882329F00E94F2F86B017C0103C0C12C85
:10425000D12C760183E50E943043882361F00E94CF
:10426000F94220E030E04AE754E40F9481440F948F
:10427000FF4B6B017C010F944B088091000581116D
:1042800005C060E085ED93E00E94A0810E943BDACA
:10429000C60ED71EE81EF91E0E943BDADC01CB01D8
:1042A0008C199D09AE09BF09B7FD02C00C94C3313A
:1042B00080E00E946F3AF0CF81E00E94286A0C945F
:1042C000C33180E00E94286A0C94C3310E945D4390
:1042D0000C94C3310F949A1581110C94C3318CE066
:1042E000EBE7F2E0DE01119601900D928A95E1F77D
:1042F00060E070E080E50E94E9F6BE016F5F7F4FED
:104300000E941C7D0C94C33180912B1687708730DE
:1043100011F00C94F73260E08FE40E944A4381115F
:104320000C94C3310C94F73280919015811111C017
:104330000F94CA29882399F0115011F40C94203459
:104340008EE194E00F94C4220F949A15882361F3B0
:1043500006C060E08FE40E944A43882349F381ED60
:1043600094E00F94C4220C94C33120911F16309115
:104370002016409121165091221660916E0870917E
:104380006F0880917008909171080F94B64AAB0144
:10439000BC0188E50E94C85A69837A838B839C8319
:1043A00020912316309124164091251650912616FF
:1043B00060917208709173088091740890917508EB
:1043C0000F94B64AAB01BC0189E50E94C85A6D83BF
:1043D0007E838F839887BE016B5F7F4FCE010196EE
:1043E0000F948928882311F40C94C33180E00E9433
:1043F000726D0F94F90161E085E40E944A4321E067
:10440000482FBE016B5F7F4FCE0101960F94EF15D1
:104410006B017C019B01AC010F94644D81115FC065
:1044200089809A80AB80BC8020E030E0A901C50182
:10443000B4010F941C4487FF05C027E137EB41E529
:1044400058EB04C027E137EB41E558E3C501B4015F
:104450000F94B64AAB01BC0183EF94E00E944B720B
:104460008D809E80AF80B88420E030E0A901C50136
:10447000B4010F941C4487FF05C027E137EB41E5E9
:1044800058EB04C027E137EB41E558E3C501B4011F
:104490000F94B64AAB01BC018EEE94E00E944B72C1
:1044A00020E030E0A901C701B6010F941C4487FF4A
:1044B00005C067E177EB81E598EB04C067E177EB36
:1044C00081E598E3A70196010F94B64AAB01BC01C0
:1044D00089EE94E00E944B728AE00E944F390F945B
:1044E000E0010F9435040C94C33110924C030C94EA
:1044F000C3318FE080934C030C94C33180914B16F1
:10450000882351F1893009F0A7C057E8A52E52E061
:10451000B52E6EE6E62E68E0F62ED12C00E010E017
:10452000F50181915F010E943043882371F00E9460
:10453000F942D7016D937D938D939C93139713301C
:1045400011F401E002C0DD24D3941F5FB4E0EB0E50
:10455000F11C143029F775C027E8222E22E0322EF4
:104560003FE6E32E35E1F32EEEE6F8E0FD8FEC8F2B
:1045700043E1C42E46E1D42E00E010E0D1018D913C
:104580001D010E943043882309F44BC00E94F94268
:104590002B013C01133049F0F60120813181428129
:1045A00053810F94B54A2B013C01AC8DBD8D2D91EB
:1045B0003D914D915C91C301B2010F94B54A4B01FD
:1045C0005C012DEB37E346E855EB0F94DC4C87FD9F
:1045D0000AC02DEB37E346E855E3C501B4010F945B
:1045E0001C441816F4F4133051F440927A08509297
:1045F0007B0860927C0870927D0801E012C0A501E2
:104600009401F70160817181828193810F94B64A90
:10461000D7016D937D938D939C931397812F0F9466
:10462000890C1F5FB4E0EB0EF11CEC8DFD8D349610
:10463000FD8FEC8FF4E0CF0ED11C143009F09ECF2B
:1046400005C0DD2019F00F94330406C0002321F0CB
:104650008AE798E00F945C080F9435040C94C331FA
:1046600080912602882311F40C94C33189E40E94BE
:104670003043E82E882321F00E94F642082F01C023
:1046800000E08AE40E943043F82E882321F00E9443
:10469000F642182F01C010E0EE2011F0033020F494
:1046A000FF2041F0133030F08BEF94E00E948B71CB
:1046B0000C94C33180E1EEE6F8E0A2E0B6E10190AF
:1046C0000D928A95E1F7EE2019F1602F000F770B1C
:1046D000880B990B0F942244209162163091631637
:1046E00040916416509165160F948144209188057D
:1046F0003091890540918A0550918B050F94B64AF7
:104700006093021670930316809304169093051617
:10471000FF2019F1612F110F770B880B990B0F9464
:104720002244209166163091671640916816509188
:1047300069160F94814420918C0530918D0540912C
:104740008E0550918F050F94B64A609306167093AC
:104750000716809308169093091660E080E50E9482
:104760004A438823C1F1EE20D1F020911F163091E9
:1047700020164091211650912216609102167091D8
:10478000031680910416909105160F94B54A609314
:104790000216709303168093041690930516FF205B
:1047A000D1F0209123163091241640912516509176
:1047B0002616609106167091071680910816909142
:1047C00009160F94B54A60930616709307168093E6
:1047D00008169093091640E050E0BA0186E40E9462
:1047E000C85A6B017C0120E030E0A9010F94DC4C39
:1047F00018164CF420E030E040E752E4C701B6015F
:104800000F94924B03C060E070E0CB0169837A8320
:104810008B839C83CE0101960F9418020C94C331B4
:104820000E94F5B00C94C33180914C1690914D16B6
:104830008937910511F40C94342C0CF0FFC08C34A2
:10484000910509F40CC50CF069C08931910509F492
:1048500056C354F58231910509F4A5C65CF4803144
:10486000910509F49BC20CF0AEC2029708F41AC27B
:104870000C94B7318631910509F4E7C264F48431B0
:10488000910509F4C1C2459711F00C94B7310E940B
:104890002F9C0C94C3318731910509F4DFC24897EE
:1048A00009F4F2C20C94B7318F31910509F405C4B3
:1048B000BCF48C31910509F4A5C34CF48A319105FF
:1048C00009F42AC34B9709F435C30C94B7318D31E1
:1048D000910509F4A1C34E9709F4A5C30C94B7310F
:1048E0008A32910509F494C464F48032910509F484
:1048F000AAC3819711F00C94B7310E94DB5E0C942F
:10490000C3318033910509F4A6C48B34910511F0AD
:104910000C94B7310E9497960C94C3318C36910554
:1049200009F4B7C50CF04BC08535910509F43EC6B6
:104930006CF58235910509F428C6F4F48D3491059F
:1049400009F491C48135910511F00C94B7310E949E
:1049500019D50E94CE960F94CD090E94E53668EED7
:1049600073E080E090E00E94D37060E08EE596E016
:104970000E94A0810C94C3318335910509F40CC6C3
:104980008435910509F40FC60C94B7318936910529
:1049900009F4EFC454F48C35910509F420C6883627
:1049A000910509F464C40C94B7318A36910509F471
:1049B000F4C48B36910509F40DC50C94B7318237D8
:1049C000910509F496C6CCF48F36910509F41CC5FF
:1049D00054F48D36910509F46EC48E36910509F4B0
:1049E00002C50C94B7318037910509F457C581375A
:1049F000910509F45EC50C94B7318637910509F429
:104A0000F6C654F48337910509F478C685379105C5
:104A100009F4DDC60C94B7318737910509F421C735
:104A20008837910511F00C94B73181E08093B0057F
:104A30008093AF050F94AB050C94C3318F3221E006
:104A4000920711F40C9410300CF089C08F3C910542
:104A500011F40C94532DE4F5883C910509F466C7D4
:104A6000ACF48139910509F406C734F48C3891050A
:104A700009F441C50C94B7318B39910509F45FC530
:104A80008E3B910509F449C50C94B7318C3C9105D6
:104A900009F4DEC754F4893C910509F494C78B3CB2
:104AA000910509F4B6C70C94B7318D3C910509F412
:104AB000D2C78E3C910511F00C94B73137E8C32E64
:104AC00032E0D32E49E6E42E46E0F42E10E0D1C7C2
:104AD000823E910511F40C94542EF4F4833D91051B
:104AE00011F40C94EE2D64F4803D910511F40C94B6
:104AF000972D813D910511F40C94E12D0C94B73163
:104B00008C3D910511F40C94F12D8D3D910511F41E
:104B10000C94FE2D0C94B7318C32A1E09A0711F45D
:104B20000C94372F7CF48831E1E09E0711F40C944B
:104B3000A02E8232914011F00C94B7310F940A1ECE
:104B40000C94C3318D3221E0920711F40C944C2F58
:104B50008E32914011F40C94CC2F0C94B731863FD7
:104B6000A1E09A0711F40C94EB300CF04FC08D3992
:104B7000E1E09E0711F40C94A0312CF5823921E07C
:104B8000920711F40C94163094F48039A1E09A073E
:104B900011F40C9413308139914011F00C94B73119
:104BA00081E00F9411070F9435040C94C3318A39B6
:104BB000E1E09E0709F47AC48C39914011F40C9419
:104BC0001C300C94B7318C3A21E0920711F40C940C
:104BD0008A306CF4843AA1E09A0711F40C942230E4
:104BE000853A914011F40C9425300C94B731843FF0
:104BF000E1E09E0711F40C94E830853F914011F0FC
:104C00000C94B7310F9487320C94C3318D3B22E062
:104C1000920711F40C948C310CF58C30A2E09A07B9
:104C200011F40C9408316CF4873FE1E09E0711F415
:104C30000C94EE30883F914011F40C94F7300C94B2
:104C4000B731883522E0920711F40C9410318B357E
:104C5000924011F40C9413310C94B731803AA3E0D4
:104C60009A0709F41AC27CF48E3BE2E09E0711F425
:104C70000C948F318335934011F00C94B7310F941D
:104C80003C1B0C94C331873E23E0920711F40C9433
:104C90009231883E934011F00C94B7310E94FDEFA1
:104CA0000C94C331A0908604B090870480E50E94E4
:104CB0003043882359F00E94F2F86B017C0111E027
:104CC000672B682B692B31F410E004C010E0C12C75
:104CD000D12C760183E50E943043882311F40C9493
:104CE0002C340E94F94220E030E04AE754E40F946B
:104CF00081440F94FF4B6B017C0111110BC0672B9A
:104D0000682B692B39F4A114B10421F0D5018C91E1
:104D1000811102C010E001C011E00F944B08112373
:104D200029F061E0C5010E94208205C060E08AE1AF
:104D300095E00E94A08110912E1683E080932E169C
:104D400081E080932D16C114D104E104F104B1F087
:104D50000E943BDAC60ED71EE81EF91E0E943BDAFF
:104D6000DC01CB018C199D09AE09BF09B7FF0EC04C
:104D700080912D1681110C94313408C080912D162C
:104D8000882321F080E00E946F3AF8CF0E9445828C
:104D900010922D1610932E160C94C3316FE375E00C
:104DA00080918604909187040F945C43892B11F4C1
:104DB0000C94C33140E060E070E08DE295E00E9429
:104DC00066730C94C33180914F1684FF02C00C941B
:104DD00035348091511687FF02C00C943534809190
:104DE0005216837011F00C94353460E08AE495E03B
:104DF0000E94A0815F988A988091080181708093B9
:104E0000060112980C94C33182E695E00E948B71E2
:104E10008EE892E10E946DB78BE1EEE8F2E1DE01EF
:104E2000119601900D928A95E1F760E070E0CE0155
:104E300001960E948FA0CE0101960E947D6983E5B4
:104E400095E00E948B710C94C3310E94BE9B8091AF
:104E50007112877F809371120C94C331E0918604A4
:104E6000F09187048081882329F0803209F4108230
:104E70003196F8CF40E061E08091860490918704FC
:104E80000E94729F0C94C33183E50E9430438823B3
:104E900021F00E94C6420E94AB5F84E50E9430432D
:104EA0008823A9F00E94C6426B017C010E947C9677
:104EB000C0928205D0928305E0928405F092850528
:104EC000CD28CE28CF2819F081E0809386050E9456
:104ED000E836882381F00E94CF9B0E94979686EF48
:104EE00095E00E94769B10925316109254161092E1
:104EF0005516109256160E9445820C94C33180912B
:104F0000711282FF03C08B7F809371120E94B99649
:104F10000E9445820C94C3318091711283FD02C0BE
:104F20000C94C33183E50E94304381110C945134B9
:104F30000C94C33183E40E9435688823C1F18DE766
:104F400095E00E948B718091D513882339F1BE01C1
:104F50006F5F7F4F82ED93E10E943AB78E010F5F42
:104F60001F4FF80181918F01882319F00E944F395A
:104F7000F8CFCE0101960E94459F8091BC158823F1
:104F800089F080E20E944F390CEB15E1D8018D9138
:104F90008D01882339F00E944F39F8CF83E795E0DF
:104FA0000E948B718AE00E944F390C94C33180912A
:104FB000711282FF21C08CE895E00E948B71609194
:104FC0006D1270916E1280916F12909170124AE082
:104FD0000E9456398FE20E944F3960916912709198
:104FE0006A1280916B1290916C124AE00E945639BD
:104FF0000E944C3A0C94C3318EE995E00E948B716B
:105000000C94C33140E060E0809186049091870465
:105010000E94729F0C94C331809171128E7F809395
:1050200071120C94C3318091711283FD02C00C94F3
:10503000C3310F94C11780918604909187040E9418
:10504000D09E0C94C3318091711282FD0F944B0855
:105050008091711283FD02C00C94C33160E080E541
:105060000E944A43182F482F61E080918604909156
:1050700087040E94729F83E50E943043882321F0B9
:105080000E94C6420E94AB5F0E94CF9B11110C94FC
:10509000C3310E9497960C94C331209186043091BD
:1050A00087049091711292609093711240E060E0D9
:1050B000C9010E94729F0C94C3310E9448967B01E3
:1050C0008C0120E831E541E050E00F94584AC901D5
:1050D0006DE671E00F948F4D4B015C01C801B70183
:1050E00020E13EE040E050E00F94584ACA01B90187
:1050F00028E130E040E050E00F94584A762E672EC9
:10510000C62ED72E9CE3292E312C412C512CC801C0
:10511000B701A20191010F94584AF62EE72ECA0159
:10512000B901A20191010F94584ACB018E010F5F82
:105130001F4F8114910499F0EF92FF927F936F9328
:105140006F927F92BF92AF929F928F9287ED95E080
:105150009F938F931F930F930F94B64313C0A11483
:10516000B104B1F0EF92FF927F936F936F927F92B1
:10517000BF92AF9287EC95E09F938F931F930F930D
:105180000F94B6430FB6F894DEBF0FBECDBF30C04C
:10519000CD2879F0EF92FF927F936F936F927F9279
:1051A0008BEB95E09F938F931F930F930F94B643D0
:1051B000E9CF892B69F0EF92FF927F936F9383EB96
:1051C00095E09F938F931F930F930F94B643DACF7D
:1051D000EF92FF928FEA95E09F938F931F930F9327
:1051E0000F94B6430F900F900F900F900F900F9069
:1051F00060E0C8010E9420820E947C72B8018BEEA0
:1052000095E00E9467728AE00E944F390C94C33186
:1052100083E50E943043882311F40C94C3310E942B
:10522000D642F82E6DE070E080E50E943D438C018F
:1052300097FF02C00C94C331E82E60E089E40E941D
:105240004A4381110C945634802F0F9436368111C5
:1052500048C50C9456340E9402F90C94C3310E9444
:10526000B9960C94C3310E94CE960C94C3318091B0
:10527000CE0D83FF02C00C94C3310E94D4EF87FF90
:1052800002C00C94C33183E50E943043882379F037
:105290000E94F9420F94FA4B8B01CB010E9409D571
:1052A0000635110524F40E94CE960E9445820F9483
:1052B000C43E0C94C3318091CE0D83FF02C00C9488
:1052C000C3310E94D4EFF82E87FF02C00C94C33183
:1052D00083E50E943043082F811106C082E50E94B9
:1052E0003043182F8823C1F10E94F9420F94FA4BE2
:1052F000CB010E9409D50E94F94220E030E04AEA41
:1053000052E40F941C44181614F40C9469340E944F
:10531000CE960E9445826091CD087091CE08072EEE
:10532000000C880B990B0F9422444B015C014090B8
:10533000C9085090CA086090CB087090CC08A301AF
:1053400092010F94DC4C181614F40C94873400234B
:1053500011F40C946D3411E00F94C43E112311F438
:105360000C94C33140E0602F8F2D0E9455D10C94D6
:10537000C3310E94D4EF182F87FD0AC083E196E065
:105380000E948B71812F0E9454CF8AE00E944F3976
:10539000B8A5B0932E160C949C3560E080E50F9470
:1053A000BE298111F0C781E40E943568882321F06D
:1053B0006091B30870E002C06FEF70E083E50E9477
:1053C000E9F68F3F910519F010F08FEF90E0809390
:1053D000B308D9C760E080E50F94BE298111D3C717
:1053E0001092B308D0C78EE40E943043882309F49A
:1053F000CAC70E94C642609382047093830480935C
:10540000840490938504BFC783E50E943568882390
:1054100031F060E083E50F94BE298093CE0D0E94A9
:105420007C7284E296E00E948B718091CE0D88237D
:1054300069F18AE1E82E86E0F82E00E010E020E035
:105440008091CE0D90E0A0E0B0E0002E04C0B695B3
:10545000A795979587950A94D2F780FF0EC0DD2413
:10546000D394D20E222319F08CE20E944F39F70117
:10547000859194910E948B712D2D0F5F1F4FE2E05B
:10548000EE0EF11C05301105D9F68CCD86E196E0C3
:1054900087CD10922D1610921B0275C741E060E077
:1054A00070E08BE296E00E9466736DC70E94A8369A
:1054B0006AC783E50E943043882371F00E94D64278
:1054C000282F30E02D3331051CF4809300025BC798
:1054D0008CE38093000257C70E947C7240910002C7
:1054E00050E060E070E089E396E00E942F728AE06D
:1054F0000E944F3948C78091CE0D83FD44C783E594
:105500000E943043882309F43EC70E94F9420F9459
:10551000FA4BCB010E94B84236C78091CE0D83FD75
:1055200032C783E50E943043182F81110C948A34CE
:1055300082E50E94304381110C948A3424C783E5AC
:105540000E943043882309F41EC70E94D642182FB8
:1055500090E0CD970CF01CE3109347030E943BDAD8
:105560006B017C01212F30E0A8EEB3E00F94A64A36
:10557000C60ED71EE81EF91EC0924303D092440304
:10558000E0924503F0924603FEC680914C038F7D66
:10559000806180934C03F7C680914C038F7E8062BC
:1055A00080934C03F0C60E94EBF7EDC683E50E94A2
:1055B0003568882309F4E7C60E94F94220E030E00C
:1055C0004AE754E40F9481440F94FF4B60934803DF
:1055D0007093490380934A0390934B03D4C60E946F
:1055E000D4EF87FDD0C690914F1694FD04C09091E2
:1055F000511697FF0AC017E8C12E12E0D12E0FEC0A
:10560000E02E0DE0F02E10E009C09091521693703C
:1056100091F7682F81E00E9441F8B5C6D6018D91BF
:105620006D010E943043882309F459C0133009F0FA
:105630004FC00E94F9424B015C0120E030E040EA9B
:1056400051E40F941C4487FF3AC0A5019401609176
:10565000EF0D7091F00D8091F10D9091F20D0F947E
:10566000924B2B013C019B01AC016091FF0D7091AD
:10567000000E8091010E9091020E0F948144609370
:10568000FF0D7093000E8093010E9093020E6091B7
:10569000A7087091A8088091A9089091AA080F9472
:1056A0002044A30192010F9481440F94FF4B609317
:1056B000A7087093A8088093A9089093AA088092DD
:1056C000EF0D9092F00DA092F10DB092F20D07C087
:1056D0000E94F942F701648B758B868B978B1F5F55
:1056E000F4E0EF0EF11C143009F098CF0F94280865
:1056F0004AC60F944B080F94350445C682E997E0DB
:105700000E948B7160E082E897E00F94832260E052
:105710008DE697E00F94832261E086E697E00F9490
:10572000832261E08BE597E00F94832261E08BE4B4
:1057300097E00F94832260E082E497E00F94832245
:1057400061E088E397E00F94832261E08EE297E0C6
:105750000F94832261E086E297E00F94832261E058
:1057600088E197E00F94832260E08AE097E00F944D
:10577000832260E08BEF96E00F94832260E08DEE51
:1057800096E00F94832260E087ED96E00F948322E9
:1057900060E086EC96E00F94832260E087EB96E071
:1057A0000F94832260E082EA96E00F94832261E006
:1057B0008FE896E00F94832260E082E896E00F94F1
:1057C000832260E08EE696E00F948322DCC5809110
:1057D000860490918704009709F48DCBDC012C910D
:1057E000222309F488CB60E00E942082CCC500917E
:1057F00086041091870494E0F12C40E0915021F14F
:10580000F8018081282F2B7F213421F4218121333D
:10581000D9F407C08035C1F4818180538A3048F0C3
:1058200013C0813421F0853421F441E002C0FF240B
:10583000F39498012E5F3F4F89012F5F3F4FF8018E
:1058400080818032C9F3DACF41110E947C72FF203F
:1058500021F088E598E00E948B71C8010E94503ABF
:1058600092C50F9457058FC51092B0051092AF05E1
:105870000F94AB0588C560E070E083E50E943D436E
:105880008C011127023011053CF00E9479728CE5E1
:1058900098E00E948B7177C588E40E94304388238A
:1058A000A9F00E94F6428A3A91053CF08530F1E079
:1058B0009F072CF084E091E002C08AEA90E0F801B2
:1058C000EE0FFF1FE45EF04F9183808386E40E9419
:1058D0003043882381F00E94F64297FD07C08F3F36
:1058E000910529F024F08FEF90E001C080E0F801ED
:1058F000EC5EF04F808382E40E943043882309F4F9
:1059000042C50E94F6428530910534F084379105F6
:105910002CF083E790E002C085E090E0F801EE0F04
:10592000FF1FE05FF04F918380832DC50E94D4EF6D
:10593000182F87FD28C584E40E943568882309F460
:105940003FC00E94F9426B017C0101E020E030E0A1
:10595000A9010F941C44811101C000E00093871538
:1059600020E030E0A901C701B6010F941C44882350
:1059700039F10E94F94224E01202F0011124E457A7
:10598000FA4E608371838283938320E030E0A90123
:1059900060918C1570918D1580918E1590918F1559
:1059A0000F941C4481110CC080E090E0A0EEBFE396
:1059B00080938C1590938D15A0938E15B0938F15B1
:1059C0000F94BA05E0C40E94D4EF87FDDCC467E8F9
:1059D000E62E62E0F62E0FEC1DE07FEDC72E7DE097
:1059E000D72ED7018D917D010E943568882359F00B
:1059F0000E94F9420F94FF4BF80160837183828308
:105A000093830F94E1070C5F1F4FC016D10649F72F
:105A1000BAC40E94D4EF87FDB6C457E8E52E52E021
:105A2000F52E0FEC1DE0D7018D917D010E943568A8
:105A3000882339F00E94F942F80164A375A386A374
:105A400097A30C5F1F4FFDE00F3D1F0761F79BC43D
:105A50000E947CF898C480914F1681FD91C7809177
:105A6000501681FD8DC7809151168C7009F088C742
:105A70008AC4D6018D916D010E943568882351F04A
:105A80000E94F942F7016083718382839383812F9F
:105A90000F94890C1F5FF4E0EF0EF11C133049F7EF
:105AA0000F94350470C483E50E943568882351F053
:105AB0000E94F94260937316709374168093751662
:105AC0009093761686E40E943568882381F00E94C0
:105AD000F94220E030E040E752E40F94924B6093AB
